{
  "address": "0x2e5A00f25DB7E513e90Ae87b39bdAD085A2B718d",
  "abi": [
    {
      "inputs": [],
      "stateMutability": "nonpayable",
      "type": "constructor"
    },
    {
      "anonymous": false,
      "inputs": [
        {
          "indexed": true,
          "internalType": "bytes32",
          "name": "id",
          "type": "bytes32"
        }
      ],
      "name": "ChainlinkCancelled",
      "type": "event"
    },
    {
      "anonymous": false,
      "inputs": [
        {
          "indexed": true,
          "internalType": "bytes32",
          "name": "id",
          "type": "bytes32"
        }
      ],
      "name": "ChainlinkFulfilled",
      "type": "event"
    },
    {
      "anonymous": false,
      "inputs": [
        {
          "indexed": true,
          "internalType": "bytes32",
          "name": "id",
          "type": "bytes32"
        }
      ],
      "name": "ChainlinkRequested",
      "type": "event"
    },
    {
      "anonymous": false,
      "inputs": [
        {
          "indexed": true,
          "internalType": "address",
          "name": "from",
          "type": "address"
        },
        {
          "indexed": true,
          "internalType": "address",
          "name": "to",
          "type": "address"
        }
      ],
      "name": "OwnershipTransferRequested",
      "type": "event"
    },
    {
      "anonymous": false,
      "inputs": [
        {
          "indexed": true,
          "internalType": "address",
          "name": "from",
          "type": "address"
        },
        {
          "indexed": true,
          "internalType": "address",
          "name": "to",
          "type": "address"
        }
      ],
      "name": "OwnershipTransferred",
      "type": "event"
    },
    {
      "anonymous": false,
      "inputs": [
        {
          "indexed": true,
          "internalType": "bytes32",
          "name": "requestId",
          "type": "bytes32"
        },
        {
          "indexed": false,
          "internalType": "uint256",
          "name": "volume",
          "type": "uint256"
        }
      ],
      "name": "RequestVolume",
      "type": "event"
    },
    {
      "inputs": [],
      "name": "acceptOwnership",
      "outputs": [],
      "stateMutability": "nonpayable",
      "type": "function"
    },
    {
      "inputs": [
        {
          "internalType": "bytes32",
          "name": "_requestId",
          "type": "bytes32"
        },
        {
          "internalType": "uint256",
          "name": "_volume",
          "type": "uint256"
        }
      ],
      "name": "fulfill",
      "outputs": [],
      "stateMutability": "nonpayable",
      "type": "function"
    },
    {
      "inputs": [],
      "name": "getouraNFTOwners",
      "outputs": [
        {
          "internalType": "address[]",
          "name": "",
          "type": "address[]"
        }
      ],
      "stateMutability": "view",
      "type": "function"
    },
    {
      "inputs": [],
      "name": "jobId",
      "outputs": [
        {
          "internalType": "bytes32",
          "name": "",
          "type": "bytes32"
        }
      ],
      "stateMutability": "view",
      "type": "function"
    },
    {
      "inputs": [
        {
          "internalType": "string",
          "name": "uri",
          "type": "string"
        }
      ],
      "name": "mint",
      "outputs": [],
      "stateMutability": "nonpayable",
      "type": "function"
    },
    {
      "inputs": [],
      "name": "ouraNFTAddress",
      "outputs": [
        {
          "internalType": "address",
          "name": "",
          "type": "address"
        }
      ],
      "stateMutability": "view",
      "type": "function"
    },
    {
      "inputs": [
        {
          "internalType": "address",
          "name": "",
          "type": "address"
        }
      ],
      "name": "ouraNFTOwnerExists",
      "outputs": [
        {
          "internalType": "bool",
          "name": "",
          "type": "bool"
        }
      ],
      "stateMutability": "view",
      "type": "function"
    },
    {
      "inputs": [
        {
          "internalType": "uint256",
          "name": "",
          "type": "uint256"
        }
      ],
      "name": "ouraNFTOwners",
      "outputs": [
        {
          "internalType": "address",
          "name": "",
          "type": "address"
        }
      ],
      "stateMutability": "view",
      "type": "function"
    },
    {
      "inputs": [],
      "name": "owner",
      "outputs": [
        {
          "internalType": "address",
          "name": "",
          "type": "address"
        }
      ],
      "stateMutability": "view",
      "type": "function"
    },
    {
      "inputs": [
        {
          "internalType": "string",
          "name": "endpoint",
          "type": "string"
        }
      ],
      "name": "requestVolumeData",
      "outputs": [
        {
          "internalType": "bytes32",
          "name": "requestId",
          "type": "bytes32"
        }
      ],
      "stateMutability": "nonpayable",
      "type": "function"
    },
    {
      "inputs": [
        {
          "internalType": "address",
          "name": "to",
          "type": "address"
        }
      ],
      "name": "transferOwnership",
      "outputs": [],
      "stateMutability": "nonpayable",
      "type": "function"
    },
    {
      "inputs": [],
      "name": "volume",
      "outputs": [
        {
          "internalType": "uint256",
          "name": "",
          "type": "uint256"
        }
      ],
      "stateMutability": "view",
      "type": "function"
    }
  ],
  "transactionHash": "0xae412718cc9199870453ad79df0b4f2e7b87eed197ddbcd288121beaab0f8556",
  "args": [],
  "numDeployments": 2,
  "solcInputHash": "022bf6d47f589efb98dd6dba0b973d37",
  "bytecode": "0x6080604052600160045573edac0b97328983eab2c05b765906ffa0d293f52e600860006101000a81548173ffffffffffffffffffffffffffffffffffffffff021916908373ffffffffffffffffffffffffffffffffffffffff1602179055503480156200006b57600080fd5b50338060008073ffffffffffffffffffffffffffffffffffffffff168273ffffffffffffffffffffffffffffffffffffffff1603620000e1576040517f08c379a0000000000000000000000000000000000000000000000000000000008152600401620000d89062000428565b60405180910390fd5b81600660006101000a81548173ffffffffffffffffffffffffffffffffffffffff021916908373ffffffffffffffffffffffffffffffffffffffff160217905550600073ffffffffffffffffffffffffffffffffffffffff168173ffffffffffffffffffffffffffffffffffffffff1614620001695762000168816200020e60201b60201c565b5b5050506200019173326c977e6efc84e512bb9c30f76e30c160ed06fb6200033f60201b60201c565b620001b67340193c8518bb267228fc409a613bdbd8ec5a97b36200038360201b60201c565b7f6361393833363663633733313439353762386330313263373266303561656562600a81905550600a670de0b6b3a76400006001620001f6919062000483565b620002029190620004fd565b600b81905550620005a7565b3373ffffffffffffffffffffffffffffffffffffffff168173ffffffffffffffffffffffffffffffffffffffff16036200027f576040517f08c379a0000000000000000000000000000000000000000000000000000000008152600401620002769062000585565b60405180910390fd5b80600760006101000a81548173ffffffffffffffffffffffffffffffffffffffff021916908373ffffffffffffffffffffffffffffffffffffffff1602179055508073ffffffffffffffffffffffffffffffffffffffff16600660009054906101000a900473ffffffffffffffffffffffffffffffffffffffff1673ffffffffffffffffffffffffffffffffffffffff167fed8889f560326eb138920d842192f0eb3dd22b4f139c87a2c57538e05bae127860405160405180910390a350565b80600260006101000a81548173ffffffffffffffffffffffffffffffffffffffff021916908373ffffffffffffffffffffffffffffffffffffffff16021790555050565b80600360006101000a81548173ffffffffffffffffffffffffffffffffffffffff021916908373ffffffffffffffffffffffffffffffffffffffff16021790555050565b600082825260208201905092915050565b7f43616e6e6f7420736574206f776e657220746f207a65726f0000000000000000600082015250565b600062000410601883620003c7565b91506200041d82620003d8565b602082019050919050565b60006020820190508181036000830152620004438162000401565b9050919050565b6000819050919050565b7f4e487b7100000000000000000000000000000000000000000000000000000000600052601160045260246000fd5b600062000490826200044a565b91506200049d836200044a565b9250828202620004ad816200044a565b91508282048414831517620004c757620004c662000454565b5b5092915050565b7f4e487b7100000000000000000000000000000000000000000000000000000000600052601260045260246000fd5b60006200050a826200044a565b915062000517836200044a565b9250826200052a5762000529620004ce565b5b828204905092915050565b7f43616e6e6f74207472616e7366657220746f2073656c66000000000000000000600082015250565b60006200056d601783620003c7565b91506200057a8262000535565b602082019050919050565b60006020820190508181036000830152620005a0816200055e565b9050919050565b61233880620005b76000396000f3fe608060405234801561001057600080fd5b50600436106100b45760003560e01c8063c618a1e411610071578063c618a1e414610169578063d85d3d2714610187578063db233ce6146101a3578063e32e1603146101d3578063f2fde38b146101f1578063f4cb2a1c1461020d576100b4565b80634357855e146100b95780635f956d1a146100d557806379ba5097146101055780638da5cb5b1461010f578063ba534f7a1461012d578063c2939d971461014b575b600080fd5b6100d360048036038101906100ce919061163b565b61023d565b005b6100ef60048036038101906100ea91906117c1565b610386565b6040516100fc9190611819565b60405180910390f35b61010d6104cd565b005b610117610664565b6040516101249190611875565b60405180910390f35b61013561068e565b604051610142919061194e565b60405180910390f35b61015361071c565b6040516101609190611819565b60405180910390f35b610171610722565b60405161017e919061197f565b60405180910390f35b6101a1600480360381019061019c91906117c1565b610728565b005b6101bd60048036038101906101b8919061199a565b6108dc565b6040516101ca9190611875565b60405180910390f35b6101db61091b565b6040516101e89190611875565b60405180910390f35b61020b600480360381019061020691906119f3565b610941565b005b610227600480360381019061022291906119f3565b610955565b6040516102349190611a3b565b60405180910390f35b816005600082815260200190815260200160002060009054906101000a900473ffffffffffffffffffffffffffffffffffffffff1673ffffffffffffffffffffffffffffffffffffffff163373ffffffffffffffffffffffffffffffffffffffff16146102df576040517f08c379a00000000000000000000000000000000000000000000000000000000081526004016102d690611ad9565b60405180910390fd5b6005600082815260200190815260200160002060006101000a81549073ffffffffffffffffffffffffffffffffffffffff0219169055807f7cc135e0cebb02c3480ae5d74d377283180a2601f8f644edf7987b009316c63a60405160405180910390a2827f673b38182859a514d734bdfcb49d3a05c4a641dec9311d9894c9717bcb79af7683604051610372919061197f565b60405180910390a281600981905550505050565b60008061039d600a5430634357855e60e01b610975565b90506103e96040518060400160405280600381526020017f676574000000000000000000000000000000000000000000000000000000000081525084836109a69092919063ffffffff16565b6104686040518060400160405280600481526020017f70617468000000000000000000000000000000000000000000000000000000008152506040518060400160405280601081526020017f736c6565702c302c6475726174696f6e00000000000000000000000000000000815250836109a69092919063ffffffff16565b6000600190506104b86040518060400160405280600581526020017f74696d657300000000000000000000000000000000000000000000000000000081525082846109d99092919063ffffffff16565b6104c482600b54610a0c565b92505050919050565b600760009054906101000a900473ffffffffffffffffffffffffffffffffffffffff1673ffffffffffffffffffffffffffffffffffffffff163373ffffffffffffffffffffffffffffffffffffffff161461055d576040517f08c379a000000000000000000000000000000000000000000000000000000000815260040161055490611b45565b60405180910390fd5b6000600660009054906101000a900473ffffffffffffffffffffffffffffffffffffffff16905033600660006101000a81548173ffffffffffffffffffffffffffffffffffffffff021916908373ffffffffffffffffffffffffffffffffffffffff1602179055506000600760006101000a81548173ffffffffffffffffffffffffffffffffffffffff021916908373ffffffffffffffffffffffffffffffffffffffff1602179055503373ffffffffffffffffffffffffffffffffffffffff168173ffffffffffffffffffffffffffffffffffffffff167f8be0079c531659141344cd1fd0a4f28419497f9722a3daafe3b4186f6b6457e060405160405180910390a350565b6000600660009054906101000a900473ffffffffffffffffffffffffffffffffffffffff16905090565b6060600c80548060200260200160405190810160405280929190818152602001828054801561071257602002820191906000526020600020905b8160009054906101000a900473ffffffffffffffffffffffffffffffffffffffff1673ffffffffffffffffffffffffffffffffffffffff16815260200190600101908083116106c8575b5050505050905090565b600a5481565b60095481565b6000600860009054906101000a900473ffffffffffffffffffffffffffffffffffffffff1690508073ffffffffffffffffffffffffffffffffffffffff1663d204c45e33846040518363ffffffff1660e01b815260040161078a929190611bd3565b600060405180830381600087803b1580156107a457600080fd5b505af11580156107b8573d6000803e3d6000fd5b50505050600060098190555060001515600d60003373ffffffffffffffffffffffffffffffffffffffff1673ffffffffffffffffffffffffffffffffffffffff16815260200190815260200160002060009054906101000a900460ff161515036108d857600c339080600181540180825580915050600190039060005260206000200160009091909190916101000a81548173ffffffffffffffffffffffffffffffffffffffff021916908373ffffffffffffffffffffffffffffffffffffffff1602179055506001600d60003373ffffffffffffffffffffffffffffffffffffffff1673ffffffffffffffffffffffffffffffffffffffff16815260200190815260200160002060006101000a81548160ff0219169083151502179055505b5050565b600c81815481106108ec57600080fd5b906000526020600020016000915054906101000a900473ffffffffffffffffffffffffffffffffffffffff1681565b600860009054906101000a900473ffffffffffffffffffffffffffffffffffffffff1681565b610949610a43565b61095281610ad5565b50565b600d6020528060005260406000206000915054906101000a900460ff1681565b61097d611534565b610985611534565b61099c85858584610c03909392919063ffffffff16565b9150509392505050565b6109bd828460800151610cb390919063ffffffff16565b6109d4818460800151610cb390919063ffffffff16565b505050565b6109f0828460800151610cb390919063ffffffff16565b610a07818460800151610cd890919063ffffffff16565b505050565b6000610a3b600360009054906101000a900473ffffffffffffffffffffffffffffffffffffffff168484610d85565b905092915050565b600660009054906101000a900473ffffffffffffffffffffffffffffffffffffffff1673ffffffffffffffffffffffffffffffffffffffff163373ffffffffffffffffffffffffffffffffffffffff1614610ad3576040517f08c379a0000000000000000000000000000000000000000000000000000000008152600401610aca90611c4f565b60405180910390fd5b565b3373ffffffffffffffffffffffffffffffffffffffff168173ffffffffffffffffffffffffffffffffffffffff1603610b43576040517f08c379a0000000000000000000000000000000000000000000000000000000008152600401610b3a90611cbb565b60405180910390fd5b80600760006101000a81548173ffffffffffffffffffffffffffffffffffffffff021916908373ffffffffffffffffffffffffffffffffffffffff1602179055508073ffffffffffffffffffffffffffffffffffffffff16600660009054906101000a900473ffffffffffffffffffffffffffffffffffffffff1673ffffffffffffffffffffffffffffffffffffffff167fed8889f560326eb138920d842192f0eb3dd22b4f139c87a2c57538e05bae127860405160405180910390a350565b610c0b611534565b610c1b8560800151610100610e51565b508385600001818152505082856020019073ffffffffffffffffffffffffffffffffffffffff16908173ffffffffffffffffffffffffffffffffffffffff16815250508185604001907bffffffffffffffffffffffffffffffffffffffffffffffffffffffff191690817bffffffffffffffffffffffffffffffffffffffffffffffffffffffff191681525050849050949350505050565b610cc08260038351610ebb565b610cd3818361104090919063ffffffff16565b505050565b7fffffffffffffffffffffffffffffffffffffffffffffffff0000000000000000811215610d0f57610d0a8282611062565b610d81565b67ffffffffffffffff811315610d2e57610d2982826110d9565b610d80565b60008112610d4757610d4282600083610ebb565b610d7f565b610d7e826001837fffffffffffffffffffffffffffffffffffffffffffffffffffffffffffffffff610d799190611d14565b610ebb565b5b5b5b5050565b6000806004549050600181610d9a9190611d57565b6004819055506000634042994660e01b60008087600001513089604001518760018c6080015160000151604051602401610ddb989796959493929190611e1b565b604051602081830303815290604052907bffffffffffffffffffffffffffffffffffffffffffffffffffffffff19166020820180517bffffffffffffffffffffffffffffffffffffffffffffffffffffffff83818316178352505050509050610e4686838684611125565b925050509392505050565b610e596115a1565b6000602083610e689190611ecf565b14610e9457602082610e7a9190611ecf565b6020610e869190611f00565b82610e919190611d57565b91505b81836020018181525050604051808452600081528281016020016040525082905092915050565b60178167ffffffffffffffff1611610ef257610eec8160058460ff16901b60ff1617846112ba90919063ffffffff16565b5061103b565b60ff8167ffffffffffffffff1611610f4857610f21601860058460ff16901b17846112ba90919063ffffffff16565b50610f428167ffffffffffffffff166001856112da9092919063ffffffff16565b5061103a565b61ffff8167ffffffffffffffff1611610f9f57610f78601960058460ff16901b17846112ba90919063ffffffff16565b50610f998167ffffffffffffffff166002856112da9092919063ffffffff16565b50611039565b63ffffffff8167ffffffffffffffff1611610ff857610fd1601a60058460ff16901b17846112ba90919063ffffffff16565b50610ff28167ffffffffffffffff166004856112da9092919063ffffffff16565b50611038565b611015601b60058460ff16901b17846112ba90919063ffffffff16565b506110368167ffffffffffffffff166008856112da9092919063ffffffff16565b505b5b5b5b505050565b6110486115a1565b61105a838460000151518485516112fc565b905092915050565b61108060036005600660ff16901b17836112ba90919063ffffffff16565b506110d582827fffffffffffffffffffffffffffffffffffffffffffffffffffffffffffffffff6110b19190611d14565b6040516020016110c1919061197f565b6040516020818303038152906040526113eb565b5050565b6110f760026005600660ff16901b17836112ba90919063ffffffff16565b50611121828260405160200161110d919061197f565b6040516020818303038152906040526113eb565b5050565b6000308460405160200161113a929190611fed565b604051602081830303815290604052805190602001209050846005600083815260200190815260200160002060006101000a81548173ffffffffffffffffffffffffffffffffffffffff021916908373ffffffffffffffffffffffffffffffffffffffff160217905550807fb5e6e01e79f91267dc17b4e6314d5d4d03593d2ceee0fbb452b750bd70ea5af960405160405180910390a2600260009054906101000a900473ffffffffffffffffffffffffffffffffffffffff1673ffffffffffffffffffffffffffffffffffffffff16634000aea08685856040518463ffffffff1660e01b815260040161123093929190612019565b6020604051808303816000875af115801561124f573d6000803e3d6000fd5b505050506040513d601f19601f820116820180604052508101906112739190612083565b6112b2576040517f08c379a00000000000000000000000000000000000000000000000000000000081526004016112a990612122565b60405180910390fd5b949350505050565b6112c26115a1565b6112d28384600001515184611410565b905092915050565b6112e26115a1565b6112f3848560000151518585611466565b90509392505050565b6113046115a1565b825182111561131257600080fd5b846020015182856113239190611d57565b111561135857611357856002611348886020015188876113439190611d57565b6114f4565b6113529190612142565b611510565b5b6000808651805187602083010193508088870111156113775787860182525b60208701925050505b602084106113be57805182526020826113999190611d57565b91506020816113a89190611d57565b90506020846113b79190611f00565b9350611380565b60006001856020036101000a03905080198251168184511681811785525050508692505050949350505050565b6113f88260028351610ebb565b61140b818361104090919063ffffffff16565b505050565b6114186115a1565b8360200151831061143e5761143d84600286602001516114389190612142565b611510565b5b83518051602085830101848153818603611459576001820183525b5050508390509392505050565b61146e6115a1565b8460200151848361147f9190611d57565b11156114a7576114a685600286856114979190611d57565b6114a19190612142565b611510565b5b60006001836101006114b991906122b7565b6114c39190611f00565b905085518386820101858319825116178152815185880111156114e65784870182525b505085915050949350505050565b6000818311156115065782905061150a565b8190505b92915050565b6000826000015190506115238383610e51565b5061152e8382611040565b50505050565b6040518060a0016040528060008019168152602001600073ffffffffffffffffffffffffffffffffffffffff16815260200160007bffffffffffffffffffffffffffffffffffffffffffffffffffffffff191681526020016000815260200161159b6115a1565b81525090565b604051806040016040528060608152602001600081525090565b6000604051905090565b600080fd5b600080fd5b6000819050919050565b6115e2816115cf565b81146115ed57600080fd5b50565b6000813590506115ff816115d9565b92915050565b6000819050919050565b61161881611605565b811461162357600080fd5b50565b6000813590506116358161160f565b92915050565b60008060408385031215611652576116516115c5565b5b6000611660858286016115f0565b925050602061167185828601611626565b9150509250929050565b600080fd5b600080fd5b6000601f19601f8301169050919050565b7f4e487b7100000000000000000000000000000000000000000000000000000000600052604160045260246000fd5b6116ce82611685565b810181811067ffffffffffffffff821117156116ed576116ec611696565b5b80604052505050565b60006117006115bb565b905061170c82826116c5565b919050565b600067ffffffffffffffff82111561172c5761172b611696565b5b61173582611685565b9050602081019050919050565b82818337600083830152505050565b600061176461175f84611711565b6116f6565b9050828152602081018484840111156117805761177f611680565b5b61178b848285611742565b509392505050565b600082601f8301126117a8576117a761167b565b5b81356117b8848260208601611751565b91505092915050565b6000602082840312156117d7576117d66115c5565b5b600082013567ffffffffffffffff8111156117f5576117f46115ca565b5b61180184828501611793565b91505092915050565b611813816115cf565b82525050565b600060208201905061182e600083018461180a565b92915050565b600073ffffffffffffffffffffffffffffffffffffffff82169050919050565b600061185f82611834565b9050919050565b61186f81611854565b82525050565b600060208201905061188a6000830184611866565b92915050565b600081519050919050565b600082825260208201905092915050565b6000819050602082019050919050565b6118c581611854565b82525050565b60006118d783836118bc565b60208301905092915050565b6000602082019050919050565b60006118fb82611890565b611905818561189b565b9350611910836118ac565b8060005b8381101561194157815161192888826118cb565b9750611933836118e3565b925050600181019050611914565b5085935050505092915050565b6000602082019050818103600083015261196881846118f0565b905092915050565b61197981611605565b82525050565b60006020820190506119946000830184611970565b92915050565b6000602082840312156119b0576119af6115c5565b5b60006119be84828501611626565b91505092915050565b6119d081611854565b81146119db57600080fd5b50565b6000813590506119ed816119c7565b92915050565b600060208284031215611a0957611a086115c5565b5b6000611a17848285016119de565b91505092915050565b60008115159050919050565b611a3581611a20565b82525050565b6000602082019050611a506000830184611a2c565b92915050565b600082825260208201905092915050565b7f536f75726365206d75737420626520746865206f7261636c65206f662074686560008201527f2072657175657374000000000000000000000000000000000000000000000000602082015250565b6000611ac3602883611a56565b9150611ace82611a67565b604082019050919050565b60006020820190508181036000830152611af281611ab6565b9050919050565b7f4d7573742062652070726f706f736564206f776e657200000000000000000000600082015250565b6000611b2f601683611a56565b9150611b3a82611af9565b602082019050919050565b60006020820190508181036000830152611b5e81611b22565b9050919050565b600081519050919050565b60005b83811015611b8e578082015181840152602081019050611b73565b60008484015250505050565b6000611ba582611b65565b611baf8185611a56565b9350611bbf818560208601611b70565b611bc881611685565b840191505092915050565b6000604082019050611be86000830185611866565b8181036020830152611bfa8184611b9a565b90509392505050565b7f4f6e6c792063616c6c61626c65206279206f776e657200000000000000000000600082015250565b6000611c39601683611a56565b9150611c4482611c03565b602082019050919050565b60006020820190508181036000830152611c6881611c2c565b9050919050565b7f43616e6e6f74207472616e7366657220746f2073656c66000000000000000000600082015250565b6000611ca5601783611a56565b9150611cb082611c6f565b602082019050919050565b60006020820190508181036000830152611cd481611c98565b9050919050565b6000819050919050565b7f4e487b7100000000000000000000000000000000000000000000000000000000600052601160045260246000fd5b6000611d1f82611cdb565b9150611d2a83611cdb565b9250828203905081811260008412168282136000851215161715611d5157611d50611ce5565b5b92915050565b6000611d6282611605565b9150611d6d83611605565b9250828201905080821115611d8557611d84611ce5565b5b92915050565b60007fffffffff0000000000000000000000000000000000000000000000000000000082169050919050565b611dc081611d8b565b82525050565b600081519050919050565b600082825260208201905092915050565b6000611ded82611dc6565b611df78185611dd1565b9350611e07818560208601611b70565b611e1081611685565b840191505092915050565b600061010082019050611e31600083018b611866565b611e3e602083018a611970565b611e4b604083018961180a565b611e586060830188611866565b611e656080830187611db7565b611e7260a0830186611970565b611e7f60c0830185611970565b81810360e0830152611e918184611de2565b90509998505050505050505050565b7f4e487b7100000000000000000000000000000000000000000000000000000000600052601260045260246000fd5b6000611eda82611605565b9150611ee583611605565b925082611ef557611ef4611ea0565b5b828206905092915050565b6000611f0b82611605565b9150611f1683611605565b9250828203905081811115611f2e57611f2d611ce5565b5b92915050565b6000819050919050565b6000611f59611f54611f4f84611834565b611f34565b611834565b9050919050565b6000611f6b82611f3e565b9050919050565b6000611f7d82611f60565b9050919050565b60008160601b9050919050565b6000611f9c82611f84565b9050919050565b6000611fae82611f91565b9050919050565b611fc6611fc182611f72565b611fa3565b82525050565b6000819050919050565b611fe7611fe282611605565b611fcc565b82525050565b6000611ff98285611fb5565b6014820191506120098284611fd6565b6020820191508190509392505050565b600060608201905061202e6000830186611866565b61203b6020830185611970565b818103604083015261204d8184611de2565b9050949350505050565b61206081611a20565b811461206b57600080fd5b50565b60008151905061207d81612057565b92915050565b600060208284031215612099576120986115c5565b5b60006120a78482850161206e565b91505092915050565b7f756e61626c6520746f207472616e73666572416e6443616c6c20746f206f726160008201527f636c650000000000000000000000000000000000000000000000000000000000602082015250565b600061210c602383611a56565b9150612117826120b0565b604082019050919050565b6000602082019050818103600083015261213b816120ff565b9050919050565b600061214d82611605565b915061215883611605565b925082820261216681611605565b9150828204841483151761217d5761217c611ce5565b5b5092915050565b60008160011c9050919050565b6000808291508390505b60018511156121db578086048111156121b7576121b6611ce5565b5b60018516156121c65780820291505b80810290506121d485612184565b945061219b565b94509492505050565b6000826121f457600190506122b0565b8161220257600090506122b0565b8160018114612218576002811461222257612251565b60019150506122b0565b60ff84111561223457612233611ce5565b5b8360020a91508482111561224b5761224a611ce5565b5b506122b0565b5060208310610133831016604e8410600b84101617156122865782820a90508381111561228157612280611ce5565b5b6122b0565b6122938484846001612191565b925090508184048111156122aa576122a9611ce5565b5b81810290505b9392505050565b60006122c282611605565b91506122cd83611605565b92506122fa7fffffffffffffffffffffffffffffffffffffffffffffffffffffffffffffffff84846121e4565b90509291505056fea2646970667358221220e2c4cc62946ed60ed2547cee3c73dd7569e1147af08726ad52232b6c35564eb764736f6c63430008110033",
  "devdoc": {
    "kind": "dev",
    "methods": {},
    "version": 1
  },
  "userdoc": {
    "kind": "user",
    "methods": {
      "acceptOwnership()": {
        "notice": "Allows an ownership transfer to be completed by the recipient."
      },
      "fulfill(bytes32,uint256)": {
        "notice": "Receive the response in the form of uint256"
      },
      "owner()": {
        "notice": "Get the current owner"
      },
      "transferOwnership(address)": {
        "notice": "Allows an owner to begin transferring ownership to a new address, pending."
      }
    },
    "version": 1
  },
  "storageLayout": {
    "storage": [
      {
        "astId": 319,
        "contract": "contracts/OuraLens.sol:OuraLens",
        "label": "s_ens",
        "offset": 0,
        "slot": "0",
        "type": "t_contract(ENSInterface)1156"
      },
      {
        "astId": 321,
        "contract": "contracts/OuraLens.sol:OuraLens",
        "label": "s_ensNode",
        "offset": 0,
        "slot": "1",
        "type": "t_bytes32"
      },
      {
        "astId": 324,
        "contract": "contracts/OuraLens.sol:OuraLens",
        "label": "s_link",
        "offset": 0,
        "slot": "2",
        "type": "t_contract(LinkTokenInterface)1251"
      },
      {
        "astId": 327,
        "contract": "contracts/OuraLens.sol:OuraLens",
        "label": "s_oracle",
        "offset": 0,
        "slot": "3",
        "type": "t_contract(OperatorInterface)1331"
      },
      {
        "astId": 330,
        "contract": "contracts/OuraLens.sol:OuraLens",
        "label": "s_requestCount",
        "offset": 0,
        "slot": "4",
        "type": "t_uint256"
      },
      {
        "astId": 334,
        "contract": "contracts/OuraLens.sol:OuraLens",
        "label": "s_pendingRequests",
        "offset": 0,
        "slot": "5",
        "type": "t_mapping(t_bytes32,t_address)"
      },
      {
        "astId": 889,
        "contract": "contracts/OuraLens.sol:OuraLens",
        "label": "s_owner",
        "offset": 0,
        "slot": "6",
        "type": "t_address"
      },
      {
        "astId": 891,
        "contract": "contracts/OuraLens.sol:OuraLens",
        "label": "s_pendingOwner",
        "offset": 0,
        "slot": "7",
        "type": "t_address"
      },
      {
        "astId": 5124,
        "contract": "contracts/OuraLens.sol:OuraLens",
        "label": "ouraNFTAddress",
        "offset": 0,
        "slot": "8",
        "type": "t_address"
      },
      {
        "astId": 5126,
        "contract": "contracts/OuraLens.sol:OuraLens",
        "label": "volume",
        "offset": 0,
        "slot": "9",
        "type": "t_uint256"
      },
      {
        "astId": 5128,
        "contract": "contracts/OuraLens.sol:OuraLens",
        "label": "jobId",
        "offset": 0,
        "slot": "10",
        "type": "t_bytes32"
      },
      {
        "astId": 5130,
        "contract": "contracts/OuraLens.sol:OuraLens",
        "label": "fee",
        "offset": 0,
        "slot": "11",
        "type": "t_uint256"
      },
      {
        "astId": 5133,
        "contract": "contracts/OuraLens.sol:OuraLens",
        "label": "ouraNFTOwners",
        "offset": 0,
        "slot": "12",
        "type": "t_array(t_address)dyn_storage"
      },
      {
        "astId": 5137,
        "contract": "contracts/OuraLens.sol:OuraLens",
        "label": "ouraNFTOwnerExists",
        "offset": 0,
        "slot": "13",
        "type": "t_mapping(t_address,t_bool)"
      }
    ],
    "types": {
      "t_address": {
        "encoding": "inplace",
        "label": "address",
        "numberOfBytes": "20"
      },
      "t_array(t_address)dyn_storage": {
        "base": "t_address",
        "encoding": "dynamic_array",
        "label": "address[]",
        "numberOfBytes": "32"
      },
      "t_bool": {
        "encoding": "inplace",
        "label": "bool",
        "numberOfBytes": "1"
      },
      "t_bytes32": {
        "encoding": "inplace",
        "label": "bytes32",
        "numberOfBytes": "32"
      },
      "t_contract(ENSInterface)1156": {
        "encoding": "inplace",
        "label": "contract ENSInterface",
        "numberOfBytes": "20"
      },
      "t_contract(LinkTokenInterface)1251": {
        "encoding": "inplace",
        "label": "contract LinkTokenInterface",
        "numberOfBytes": "20"
      },
      "t_contract(OperatorInterface)1331": {
        "encoding": "inplace",
        "label": "contract OperatorInterface",
        "numberOfBytes": "20"
      },
      "t_mapping(t_address,t_bool)": {
        "encoding": "mapping",
        "key": "t_address",
        "label": "mapping(address => bool)",
        "numberOfBytes": "32",
        "value": "t_bool"
      },
      "t_mapping(t_bytes32,t_address)": {
        "encoding": "mapping",
        "key": "t_bytes32",
        "label": "mapping(bytes32 => address)",
        "numberOfBytes": "32",
        "value": "t_address"
      },
      "t_uint256": {
        "encoding": "inplace",
        "label": "uint256",
        "numberOfBytes": "32"
      }
    }
  }
}